:020000040000FA
:06000000B7EF0EF0120044
:06080000B7EF0EF012003C
:0608080005EF0DF01200E7
:06081800FCEF0CF01200E1
:06082A000300AB1D0000FD
:100830001801000003000000A91D00001D010000B8
:1008400002000000A61D00001501000003000000CA
:10085000948E949C710EAF6E020EB06E240EAC6E30
:10086000900EAB6E080EB86E1200D9CFE6FFE1CF46
:10087000D9FF020EE126D950FD0FE96EFF0EDA20F6
:10088000EA6EEE50ED1001E11CD0DE6ADD6ADECFCB
:1008900010F0DDCF11F0FD0EDBCF12F0FE0EDBCF3E
:1008A00013F01250105C135011580BE20400050EA7
:1008B000E66E97EC0EF0E552DF2A010E01E3DB2A2B
:1008C000E6D7020EE15C02E2E16AE552E16EE55232
:1008D000E7CFD9FF1200D9CFE6FFE1CFD9FF020E53
:1008E000E126D950FD0FE96EFF0EDA20EA6EEE50D8
:1008F000ED1001E11CD00400DE6ADD6ADECF10F0ED
:10090000DDCF11F0FD0EDBCF12F0FE0EDBCF13F0CA
:100910001250105C135011580AE200000000000051
:1009200000000000DF2A010E01E3DB2AE7D7020EF8
:10093000E15C02E2E16AE552E16EE552E7CFD9FF00
:100940001200D9CFE6FFE1CFD9FFE6520400A69C02
:10095000A69EFE0EDB50A96EF29EA680A850DF6E0A
:10096000F28EDF5000D0E552E552E7CFD9FF1200FA
:10097000D9CFE6FFE1CFD9FFE652F250800B01E07C
:10098000010EDF6EF29EFE0EDB50A96EFD0EDB50F7
:10099000A86EA69EA69CA684550EA76EAA0EA76E4C
:1009A000A6820400A6B2FDD7A694DF50E8B0F28E6E
:1009B000E8A0F29EE552E552E7CFD9FF1200D9CF69
:1009C000E6FFE1CFD9FF020EE126FD0EDBCFDEFF11
:1009D000DBCFDDFFFA0EDBCFF3FFDB06F3500009C0
:1009E00019E0DFCFE9FFDF2A010EDBCFEAFF01E3E9
:1009F000DB2AEF50E66EFB0EDBCF10F0DB2AFC0E9D
:100A0000DBCF11F001E3DB2A1050E66EB1DFE552D7
:100A1000E552E0D7020EE15C02E2E16AE552E16EE6
:100A2000E552E7CFD9FF1200D9CFE6FFE1CFD9FFDA
:100A3000020EE126DE6ADD6ADE6ADD6AFD0EDBCFCC
:100A400010F0FE0EDBCF11F0DE501024E96EDD5009
:100A50001120EA6EEF5022E0FD0EDBCF10F0FE0E0B
:100A6000DBCF11F0DE501024E96EDD501120EA6E6C
:100A7000EF50E66EFC0EDB50146E156ADE50142447
:100A8000126EDD501520136E1250E66E71DFE552C6
:100A9000E552DF2A010E01E3DB2AD0D7E66AFC0E1D
:100AA000DB2AFC0EDBCFE6FF63DFE552E552020EE8
:100AB000E15C02E2E16AE552E16EE552E7CFD9FF7F
:100AC0001200D9CFE6FFE1CFD9FF040EE126FD0EDB
:100AD000DBCF08F0FE0EDBCF09F0020E08C0DBFF13
:100AE000030E09C0DBFFFB0EDBCF10F0DB2AFC0E90
:100AF000DBCF11F001E3DB2A1050E66E22DFE55276
:100B0000E66EFD0EDBCFE9FFFE0EDBCFEAFFE5521E
:100B1000E750EF6EFD0EDBCFE9FFFE0EDBCFEAFF05
:100B2000EF501DE0FD0EDB2AFE0E01E3DB2AFB0E7B
:100B3000DBCF10F0DB2AFC0EDBCF11F001E3DB2A68
:100B40001050E66EFEDEE552E66EFD0EDBCFE9FFED
:100B5000FE0EDBCFEAFFE552E750EF6EDBD7020E69
:100B6000DBCF08F0030EDBCF09F0FD0E08C0DBFF82
:100B7000FE0E09C0DBFF040EE15C02E2E16AE55211
:100B8000E16EE552E7CFD9FF1200010115510101D5
:100B9000135D106E145101011655116EE80ED880C8
:100BA0001054030E11540FE2E80E1527030E1623FE
:100BB0000001E25108E18A0EE66E1D0EE66E1BECA6
:100BC00007F0E552E5521200D9CFE6FFE1CFD9FF99
:100BD000290EE12601011751010A16E0010A01E080
:100BE00019D0080EE66E600EE66E000EE66E9EEC04
:100BF00006F0E552E552E5520001E06F000903E01E
:100C00000101010E176F06D00001E25102E101015E
:100C1000176B00D0290EE15C02E2E16AE552E16E59
:080C2000E552E7CFD9FF1200F5
:080C2800040120511F0B01081B
:100C300001E05BD02051600BE842E842E842E84224
:100C4000E842010801E051D0245103E0240501E00D
:100C50004CD02151230A48E0010A40E0030A30E069
:100C6000010A25E0240A22E0070A1FE0010A1CE02D
:100C7000030A11E0010A01E038D00101030E0B6FF5
:100C80000101F40E0C6F000E0D6F0001FD930101C8
:100C9000080E106F2AD00101030E0B6F0101F40E34
:100CA0000E6F000E0F6F21D020D01FD01ED001017B
:100CB000030E0B6F0101E90E0E6F000E0F6F15D0C2
:100CC0000101030E0B6F0101E90E0C6F000E0D6F99
:100CD0000001FD930101070E106F07D00101030E03
:100CE0000B6F22C4F0F001D000D012000001E96BBC
:100CF000C20EEA6F010EEB6FEC6BED6BEE6B080E44
:100D0000EF6FE26BE16B1A0E726E1E0E736E0401D2
:100D1000000E166F050E176F400E146F0401196F49
:100D2000080E1A6F050E1B6F880E186F0401480E0F
:100D30001E6F050E1F6F400E1C6F1200D9CFE6FF0D
:100D4000E1CFD9FF0001E16B040118BF30D0FC0EE8
:100D5000DBCF10F01951D880105403E2FC0E19C4F7
:100D6000DBFF0001E16BFC0EDB50E15D19E2E151BC
:100D7000EA6A080FE96E050EEA22EF50E66EE151CD
:100D8000E76EFD0EDBCFE9FFFE0EDBCFEAFFE7509B
:100D9000E926000EEA22E552E750EF6EE12BE3D799
:100DA0000401400E196F1817187D880E18130001E2
:100DB000E15100D0E552E7CFD9FF1200D9CFE6FFCD
:100DC000E1CFD9FFE6520001E25101E02FD0DF6A06
:100DD000DF2ADF50106E116AFF0E101801E111506A
:100DE00001E10BD0FD0EDBCFE9FFDB2AFE0EDBCFEE
:100DF000EAFF01E3DB2AEF50EBE1DF50106E116AEE
:100E0000D950FD0FE96EFF0EDA20EA6E1050EE5E4B
:100E10001150ED5AFD0EDBCFE3F0FE0EDBCFE4F018
:100E2000DFCFE7F00001E86B010EE26FE552E5521B
:100E3000E7CFD9FF1200D9CFE6FFE1CFD9FFE652C5
:100E40000001E25101E030D0DF6ADF2ADF50106E8E
:100E5000116AFF0E101801E1115001E10CD0FD0ED6
:100E6000DBCFF6FFDB2AFE0EDBCFF7FF01E3DB2A49
:100E70000800F550EAE1DF50106E116AD950FD0FFD
:100E8000E96EFF0EDA20EA6E1050EE5E1150ED5A58
:100E9000FD0EDBCFE3F0FE0EDBCFE4F0DFCFE7F0BB
:100EA0000001010EE86FE26FE552E552E7CFD9FF8E
:100EB0001200D9CFE6FFE1CFD9FFE65204011CBFF3
:100EC0006BD0030E0001E25D01E1E26BE25101E152
:100ED00063D0020EE25D06E104011D6B0001030E0A
:100EE000E26F54D0E20552E1400E106E116AE751F4
:100EF000105C000E115803E2400EDF6E02D0E7C016
:100F0000DFFFDFCF1DF4DF50E75DE76F480EE56FD1
:100F1000050EE66FE80515E1DF5012E0E3C0F6FFCD
:100F2000E4C0F7FF0800F550E5C0E9FFE6C0EAFFBE
:100F3000EF6EE52B000EE623E32BE423DF06ECD770
:100F400013D0DF5011E0E3C0E9FFE4C0EAFFEF5047
:100F5000E5C0E9FFE6C0EAFFEF6EE52B000EE623F1
:100F6000E32BE423DF06EDD7E75110E104011D5127
:100F7000106E116A400E101801E1115004E10001D9
:100F8000020EE26F03D00001030EE26F400E040177
:100F90001C171C7D880E1C13E552E552E7CFD9FFC4
:020FA00012003D
:0E0FA20004012051600BE842E842E842E842B8
:100FB000E842000901E055D02151070A51E00B0A2F
:100FC0004FE0070A40E0010A2CE00B0A28E0020A81
:100FD00026E0030A22E0080A12E0010A0EE00F0AE6
:100FE0000AE0030A01E03CD00101010E0B6F000191
:100FF000040EFC6F36D036D834D090D832D00101F0
:10100000010E0B6F0101FE0E0C6F000E0D6F000143
:10101000FD930101010E106F24D0A8D822D0F6D87C
:1010200020D00101010E0B6F0401245101010C6F4E
:101030000D6BFF0E0C27000E0D230001FD93010127
:10104000010E106F0ED00101010E0B6F040124512F
:10105000EA6AFF0FE96E000EEA2222C4EFFF01D018
:1010600000D01200800E0401205D57E12351030AD5
:1010700034E0010A10E0030A01E04DD00101010E45
:101080000B6F01014A0E0C6F1B0E0D6F120E01014A
:10109000106F116B40D00101010E0B6F0401225142
:1010A000F66EF76AD890F636F7360B0EF6261C0E5B
:1010B000F7220900F5CF0CF10A00F5CF0DF1020E71
:1010C0000101F76A0C25F66E0D51F7220900F5CFE4
:1010D00010F10A00F5CF11F11ED00101010E0B6FC6
:1010E00004012251F66EF76AD890F636F7360F0EE5
:1010F000F6261C0EF7220900F5CF0CF10A00F5CFF9
:101100000DF10CC1F6FF0DC1F7FF0800F55001010C
:10111000106F116B00D00001FD8312000101010E60
:101120000B6F0F0EE66E710EE66E0F0EE66EE7ECBD
:101130000CF0E552E552E552010EE66EFF0EE66E4A
:10114000000EE66EE7EC0CF0E552E552E55222C4E3
:10115000FEF00401225104E10001050EFC6F05D0F0
:101160000001060EFC6F76EC06F012000401286BFD
:10117000296B040120511F0B020A16E0030A10E03C
:10118000010A01E035D00101010E0B6F83A402D0EA
:10119000040128810001FDA102D00401288328D088
:1011A0000101010E0B6F24D00101010E0B6F040130
:1011B00024510F0B080DF350116A000F106E040E2E
:1011C00011222451800B01E0010E040DF3500101A6
:1011D00010240E6F000E11200F6F0EC1E9FF0FC11A
:1011E000EAFFEF50040B03E00401010E286F00D06A
:1011F00001010B050AE10101280E0C6F040E0D6FB1
:101200000001FD930101020E106F1200040122057E
:1012100010E120511F0B00090CE10101010E0B6FC1
:10122000030E0401215D03E10001FD8102D00001F4
:10123000FD91040122513AE120511F0B020836E1D1
:1012400024510F0B000932E00101010E0B6F040164
:1012500024510F0B080DF350116A000F106E040E8D
:1012600011222451800B01E0010E040DF350010105
:1012700010240E6F000E11200F6F030E0401215D6C
:1012800007E1840E0EC1E9FF0FC1EAFFEF6E0ED039
:1012900024AF06D00EC1E9FF0FC1EAFFEF6A06D006
:0E12A000880E0EC1E9FF0FC1EAFFEF6E1200CB
:0212AE006C5082
:1012B00002E0000E01D0010E00090BE00401005114
:1012C0003C0BE842E8420D0802E10CD801D040D8BE
:1012D00008D06C5002E0000E01D0010E040901E0BC
:1012E00047D81200D9CFE6FFE1CFD9FFE65201017E
:1012F0000A6B0B6B106B116BD1EC07F0DF6ADF50E0
:10130000106E116A010E105C000E11581BE20101F3
:101310000B5101E017D0F76ADF34FE0BF736F66E9B
:10132000150EF6261C0EF7220900F5CF10F0080066
:10133000F5CF11F004D011C0FAFF1050F96EFBDFA9
:10134000DF2ADDD7DDD8E552E552E7CFD9FF12001D
:10135000020E01010A5D0AE196D8040100BD03D026
:10136000C80E006F02D0880E006F01D00FD9120096
:10137000040E0001FC5D0AE122C46EFF6E500008FD
:1013800003E2050EFC6F02D0030EFC6F01010A059B
:101390000AE10BD8040104BD03D0C80E046F02D0CB
:1013A000880E046F01D0F2D81200D9CFE6FFE1CF4A
:1013B000D9FF020EE1260101080E105D000E115941
:1013C00005E210C1DEFF11C1DDFF03D0080EDE6EA5
:1013D000DD6A040104930491010EDB500413DFCF96
:1013E00005F4000EDB500101105F010EDB50115BB4
:1013F000280E0E6F040E0F6F0001FDA31ED0D9CF73
:10140000E9FFDACFEAFFEE50ED1016E00CC1F6FF6F
:101410000DC1F7FF0800F5500EC1E9FF0FC1EAFF4B
:10142000EF6E01010E2B000E0F230C2B0D23DF0698
:10143000010E01E2DB06E3D71CD0D9CFE9FFDACFFA
:10144000EAFFEE50ED1015E00CC1E9FF0DC1EAFF17
:10145000EF500EC1E9FF0FC1EAFFEF6E01010E2B45
:10146000000E0F230C2B0D23DF06010E01E2DB061D
:10147000E4D7020EE15C02E2E16AE552E16EE55278
:10148000E7CFD9FF1200D9CFE6FFE1CFD9FF020E97
:10149000E126030E04010015E76E010EE7CFDBFF26
:1014A00001C4DFFFDE5001011027DD501123280E9B
:1014B0000C6F040E0D6FD9CFE9FFDACFEAFFEE50C3
:1014C000ED1014E00CC1E9FF0DC1EAFFEF500EC1B1
:1014D000E9FF0FC1EAFFEF6E0E2B000E0F230C2B5E
:1014E0000D23DF06010E01E2DB06E5D7020EE15C0B
:1014F00002E2E16AE552E16EE552E7CFD9FF120060
:1015000001010B510CE10401080E016F200E026F66
:10151000040E036F840E006F0401046F35D00401C4
:1015200020AF22D0010110510401265D01011151AB
:101530000401275904E226C410F127C411F135DF54
:101540000101010E0A6F0401080E016F200E026FE7
:10155000040E036F800E006F0401280E066F040E48
:10156000076FC80E046F10D00101020E0A6F04014C
:10157000056BC80E046F0401080E016F280E026F80
:10158000040E036FC80E006F6D98120001010A6B04
:101590000401080E016F200E026F040E036F880E07
:0815A000006F0401046B12004E
:0815A800050EE66EE66A6BEC2D
:1015B00004F0E552E55289860A0EE66EE66A6BECA7
:1015C00004F0E552E5528996050EE66EE66A6BEC8C
:1015D00004F0E552E5521200400E8A16939C020E6A
:1015E00089169292080E8916929628EF04F0D9CFA8
:1015F000E6FFE1CFD9FFE652DF6A080EDF5C16E2B4
:10160000070ED880DF54106EFE0EDB5010C0E7FFCF
:10161000E75204E0E8427F0BE706FCE1010BE8B08B
:101620008982E8A08992C0DFDF2AE7D7DF6A080E47
:10163000DF5C16E2070ED880DF54106EFD0EDB5023
:1016400010C0E7FFE75204E0E8427F0BE706FCE149
:10165000010BE8B08982E8A08992A6DFDF2AE7D7EC
:10166000DF6A080EDF5C16E2070ED880DF54106ECA
:10167000FC0EDB5010C0E7FFE75204E0E8427F0BAE
:10168000E706FCE1010BE8B08982E8A089928CDFD3
:10169000DF2AE7D7E552E552E7CFD9FF1200D9CFCD
:1016A000E6FFE1CFD9FF670EE126320EDF6E060EB0
:1016B000DB6A010EF36E520EF3CFDBFF899289963F
:1016C000C80EE66EE66A35EC04F0E552E552010E0E
:1016D000DB6A190EF36E010EDBCFF4FFF350F45CFE
:1016E00051E2520EDBCFF3FFDB2AF350E66EA1ECA2
:1016F00004F0E552E66ED950070F106EDACF11F004
:10170000010EDB500F011024E96E000E1120EA6E6D
:10171000E552E750EF6E520EDBCFF3FFDB2AF350BA
:10172000E66EA1EC04F0E552E66ED950200F106E83
:10173000DACF11F0010EDB500F011024E96E000E1C
:101740001120EA6EE552E750EF6E520EDBCFF3FF49
:10175000DB2AF350E66EA1EC04F0E552E66ED950B8
:10176000390F106EDACF11F0010EDB500F0110248B
:10177000E96E000E1120EA6EE552E750EF6E010EA1
:10178000DB2AA7D7020EDB6A320EF36E020EDBCF26
:10179000F4FFF350F45C55E2020EDB500101116AD4
:1017A0001D25106E1E511122190E0D6E0E6A10C0ED
:1017B00008F011C009F05BEC0EF004C010F005C099
:1017C00011F0010E10C0DBFFD950070F106EDACFF9
:1017D00011F0010EDB500F011024E96E000E1120F4
:1017E000EA6E040EEFCFDBFFD950200F106EDACF78
:1017F00011F0010EDB501024E96E000E1120EA6E8C
:10180000050EEFCFDBFFD950390F106EDACF11F094
:10181000010EDB501024E96E000E1120EA6E060E58
:10182000EFCFDBFFDBCFE6FF050EDBCFE6FF040EDD
:10183000DBCFE6FFDCDEE552E552E552020EDB2AA5
:10184000A3D7C80EE66EE66A35EC04F0E552E55221
:1018500001011D07000E1E5B800E1E1503E0DF5008
:101860001D6F1E6B670EE15C02E2E16AE552E16EFC
:08187000E552E7CFD9FF120099
:0818780083A603D06DA60FD872
:1018800002D06DB613D80001FC0508E16DBA06D090
:10189000686A696A69806988020EFC6F12006D6A65
:1018A000696A6D860001010EFC6F12006D6A696A3B
:1018B0000001FC6B120056EF0CF00001FC5101E13D
:1018C0003AD06850040B04E06950040B01E03CD8A6
:1018D0006DB231D06850010B04E06950010B01E09A
:1018E00054D86850100B04E06950100B01E024D864
:1018F0006850400B04E06950400B01E03BD8685051
:10190000200B04E06950200B01E036D86850020B30
:1019100004E06950020B01E036D8030E0001FC5DC3
:1019200001E209D06850080B06E06950080B03E09B
:1019300057EC09F068961200698468986D82A19A44
:10194000A08A0300A09A12006D9269946894120014
:101950000001FDA10ED0F8DF6D840101080E1B6FA0
:10196000070E1C6F1B07000E1C5B1B511C11FAE1BC
:101970006D941200689C120070A003D0C6EC0AF0AF
:101980007090689A1200689212006A6A686A9F0EE4
:101990006B6E7B0E696E6E6A0F0EE66E710EE66EF2
:1019A0000F0EE66E14D8E552E552E552160E706E33
:1019B00068A602D06896FCD76D98C6EC0AF00001C4
:1019C000FD910001FE6B0001030EFC6F1200D9CFE8
:1019D000E6FFE1CFD9FFFD0EDBCFE9FFFE0EDBCF47
:1019E000EAFFFC0EDB5004E0EE6AFC0EDB06F9D7E2
:0819F000E552E7CFD9FF120018
:0819F800DACFE4FFE2CFDAFFD1
:101A0000E652E552E5CFDAFF1100DACFE4FFE2CF8C
:101A1000DAFFE6529EA207D09E920101122B01012D
:101A2000132B000E1423E552E5CFDAFF11000FD877
:101A3000CDEC0EF022D829D8060E0001FC5D05E39E
:101A40006D50020B02E14FEC0BF0F4D712000F0EB9
:101A5000C1125D0ECA6EF90ECB6E9D82958695847D
:101A6000140E6F6E0001FC6B0001FD6B0001FE6B3C
:101A7000ECEC0AF0F28CF28E12003CEC0CF06FBE33
:101A800002D05DEC0CF059EF07F001011F5101018C
:101A9000125D106E116A113404E210509608000EA7
:101AA00011540DE2960E01011F2701011851191161
:101AB00003E1200E186F196B1807000E195B030E57
:101AC00001011815106E116A030E101801E1115072
:101AD0000DE1040E1A03F3CF10F01050185D000E44
:101AE000195902E28A8C01D08A9C01D08A9C6DA28D
:101AF00003D0010E1A6F28D00001FC5104E101014E
:101B0000020E1A6F21D0FC0504E10101030E1A6FC9
:101B10001BD0020EFC5D04E10101040E1A6F14D00B
:101B2000030EFC5D04E10101050E1A6F0DD0050ED8
:101B3000FC5D04E10101060E1A6F06D0060EFC5D85
:0A1B400003E10101070E1A6F120005
:061B4A001201000202007E
:101B50000008D8040A000000010200010902430045
:101B60000201008032090400000102020100052484
:101B700000100104240202052406000105240100CE
:101B8000010705820308000209040100020A00009F
:101B9000000705030240000007058302400000041F
:101BA00003090434034D006900630072006F006391
:101BB0000068006900700020005400650063006840
:101BC000006E006F006C006F006700790020004914
:101BD000006E0063002E00340343004400430020E5
:101BE00000520053002D0032003300320020004527
:101BF000006D0075006C006100740069006F006E7C
:101C0000002000440065006D006F005C1B5C1B9FA2
:071C10001BA31BD71B280CCE
:081C18002A0EF66E080EF76EAD
:101C2000000EF86E01010900F550056F0900F5502E
:101C3000066F03E1056701D03DD00900F550006F44
:101C40000900F550016F0900F550026F0900090005
:101C5000F550E96E0900F550EA6E09000900090027
:101C6000F550036F0900F550046F09000900F6CF25
:101C700007F1F7CF08F1F8CF09F100C1F6FF01C174
:101C8000F7FF02C1F8FF0101035302E1045307E02B
:101C90000900F550EE6E0307F8E20407F9D707C113
:101CA000F6FF08C1F7FF09C1F8FF01010507000EA3
:061CB000065BBFD7120025
:0A1CB600006A0EAE64EF0EF00D6C34
:101CC0000E1EE86A0E22001E09AE6CEF0EF0086CC4
:101CD000091EE86A0922001E81EC0EF009BE7CEFA5
:101CE0000EF000AE000C086C091EE86A0922046CB4
:101CF000051EE86A0522000C00BE73EF0EF0018895
:021D0000FF0CD6
:0E1D0200056A046A100EE76ED890083609369E
:101D1000043605360D50045C0E50055805E30D5091
:0E1D2000045E0E50055A082AE72EF0D7120076
:021D2E00FF0EA6
:101D3000E350166E480E01D04C0EE76EE72EFED72C
:0E1D4000E76AE72EFED7162EF7D70000120036
:021D4E00000E85
:101D5000F36E00EE00F0080E01D81200EA6002D027
:0E1D6000EE6AFCD7F350E9601200EE6AFCD781
:021D6E0013EE72
:101D700000F023EE00F0F86A019C0CEC0EF0D2ECBF
:0A1D80000EF017EC0DF0FBD7120077
:061D8A000D48656C6C6F52
:091D900020576F726C640D0A000B
:061D9A000101126B136B46
:041DA000146B1200AE
:021DA40012002B
:031DA6000000003A
:021DA900320006
:031DAB0000000035
:0200000400F00A
:10000000000000FFFFFFFF0000FF000000000000F5
:10001000FFC000FFFFFFFFC0000000000000000065
:10002000FF00FF000000FF00000000000000FF00D4
:1000300000FFBC0000FF000000000000000000FF07
:10004000FFFFFF0000FF00000000000000000000B4
:10005000000000000000000000000000FF00FF00A2
:100060000000FF0000000000000000000000000091
:100070000000000000000000000000FFFFFFFF0084
:1000800000FF000000000000000000000000000071
:100090000000000000000000000000000000000060
:1000A0000000000000000000000000000000000050
:1000B0000000000000000000000000000000000040
:1000C0000000000000000000000000000000000030
:1000D0000000000000000000000000000000000020
:1000E0000000000000000000000000000000000010
:1000F0000000000000000000000000000000000000
:00000001FF
