:020000040000FA
:0600000041EF0FF01200B9
:0608000041EF0FF01200B1
:0608080092EF0DF012005A
:0608180089EF0DF0120053
:06082A000200AF1E0000F9
:100830001A01000003000000AA1E000012010000BF
:0408400005000000AF
:0C084400050EE66EE66A6CEC08F0E5526A
:10085000E55289860A0EE66EE66A6CEC08F0E5520F
:10086000E5528996050EE66EE66A6CEC08F0E552F4
:10087000E5521200400E8A16939C020E891692923F
:10088000080E8916929629EF08F0D9CFE6FFE1CF3E
:10089000D9FFE652DF6A080EDF5C16E2070ED88049
:1008A000DF540B6EFE0EDB500BC0E7FFE75204E097
:1008B000E8427F0BE706FCE1010BE8B08982E8A083
:1008C0008992C0DFDF2AE7D7DF6A080EDF5C16E215
:1008D000070ED880DF540B6EFD0EDB500BC0E7FF18
:1008E000E75204E0E8427F0BE706FCE1010BE8B0C9
:1008F0008982E8A08992A6DFDF2AE7D7DF6A080E9F
:10090000DF5C16E2070ED880DF540B6EFC0EDB5066
:100910000BC0E7FFE75204E0E8427F0BE706FCE18B
:10092000010BE8B08982E8A089928CDFDF2AE7D743
:10093000E552E552E7CFD9FF1200D9CFE6FFE1CF6C
:10094000D9FF600EE126050EDB6A060EDB6A240E77
:10095000DB6A420EDB6A640EF36E070EF3CFDBFF39
:10096000250EDB6A430EDB6A080EDB6A640EF36E4B
:10097000260EF3CFDBFF440EDB6A640EF36E090E26
:10098000F3CFDBFF270EDB6A450EDB6A0A0EDB6A5C
:10099000640EF36E280EF3CFDBFF460EDB6A640EA7
:1009A000F36E0B0EF3CFDBFF290EDB6A470EDB6A1B
:1009B0000C0EDB6A640EF36E2A0EF3CFDBFF480EDB
:1009C000DB6A640EF36E0D0EF3CFDBFF2B0EDB6ADA
:1009D000490EDB6A0E0EDB6A640EF36E2C0EF3CF4B
:1009E000DBFF4A0EDB6A640EF36E0F0EF3CFDBFF04
:1009F0002D0EDB6A4B0EDB6A100EDB6A640EF36EA3
:100A00002E0EF3CFDBFF4C0EDB6A640EF36E110E7D
:100A1000F3CFDBFF2F0EDB6A4D0EDB6A120EDB6AB3
:100A2000640EF36E300EF3CFDBFF4E0EDB6A640E06
:100A3000F36E130EF3CFDBFF310EDB6A4F0EDB6A72
:100A4000140EDB6A640EF36E320EF3CFDBFF500E32
:100A5000DB6A640EF36E150EF3CFDBFF330EDB6A39
:100A6000510EDB6A160EDB6A640EF36E340EF3CFA2
:100A7000DBFF520EDB6A640EF36E170EF3CFDBFF63
:100A8000350EDB6A530EDB6A180EDB6A640EF36EFA
:100A9000360EF3CFDBFF540EDB6A640EF36E190ED5
:100AA000F3CFDBFF370EDB6A550EDB6A1A0EDB6A0B
:100AB000640EF36E380EF3CFDBFF560EDB6A640E66
:100AC000F36E1B0EF3CFDBFF390EDB6A570EDB6ACA
:100AD0001C0EDB6A640EF36E3A0EF3CFDBFF580E8A
:100AE000DB6A640EF36E1D0EF3CFDBFF3B0EDB6A99
:100AF000590EDB6A1E0EDB6A640EF36E3C0EF3CFFA
:100B0000DBFF5A0EDB6A640EF36E1F0EF3CFDBFFC2
:100B10003D0EDB6A5B0EDB6A200EDB6A640EF36E51
:100B20003E0EF3CFDBFF5C0EDB6A640EF36E210E2C
:100B3000F3CFDBFF3F0EDB6A5D0EDB6A220EDB6A62
:100B4000640EF36E400EF3CFDBFF5E0EDB6A640EC5
:100B5000F36E230EF3CFDBFF410EDB6A5F0EDB6A21
:100B6000020EDB6A89928996C80EE66EE66A36EC5A
:100B700008F0E552E552600EE15C02E2E16AE552FE
:100B8000E16EE552E7CFD9FF1200010113510101D7
:100B9000185D0B6E1951010114550C6EE80ED880CA
:100BA0000B54030E0C540FE2E80E1327030E14230C
:100BB0000001E25108E1320EE66E1E0EE66E73ECA5
:100BC00007F0E552E5521200D9CFE6FFE1CFD9FF99
:100BD000290EE12601011551010A16E0010A01E082
:100BE00037D0080EE66E600EE66E000EE66EF6EC8E
:100BF00006F0E552E552E5520001E06F000903E01E
:100C00000101010E156F24D00001E25120E1000125
:100C10000D0EA06F520EA16F650EA26F630EA36F33
:100C2000650EA46F690EA56F760EA66F650EA76F91
:100C3000640EA86F3A0EA96F200EAA6F60C0ABF0C9
:100C40000D0EAC6F0A0EAD6FAE6B0101156B00D0CF
:100C5000290EE15C02E2E16AE552E16EE552E7CF7E
:100C6000D9FF1200010116510EE10001E2510AE123
:100C70000A0EE66E1E0EE66E73EC07F0E552E552C4
:100C80000101162B20D016050EE10001E2510AE108
:100C90000F0EE66E1E0EE66E73EC07F0E552E5529F
:100CA0000101162B10D0020E165D0DE10001E2517C
:100CB0000AE1D00EE66E1D0EE66E73EC07F0E5520B
:100CC000E5520101162B030E0101165D02E1010E32
:080CD00002D0000E00D012005A
:080CD800040120511F0B01086B
:100CE00001E05BD02051600BE842E842E842E84274
:100CF000E842010801E051D0245103E0240501E05D
:100D00004CD02151230A48E0010A40E0030A30E0B8
:100D1000010A25E0240A22E0070A1FE0010A1CE07C
:100D2000030A11E0010A01E038D00101030E0B6F44
:100D30000101F40E0C6F000E0D6F0001FD93010117
:100D4000080E106F2AD00101030E0B6F0101F40E83
:100D50000E6F000E0F6F21D020D01FD01ED00101CA
:100D6000030E0B6F0101E90E0E6F000E0F6F15D011
:100D70000101030E0B6F0101E90E0C6F000E0D6FE8
:100D80000001FD930101070E106F07D00101030E52
:100D90000B6F22C4F0F001D000D012000001E96B0B
:100DA000C20EEA6F010EEB6FEC6BED6BEE6B080E93
:100DB000EF6FE26BE16B1A0E726E1E0E736E040122
:100DC000000E166F050E176F400E146F0401196F99
:100DD000080E1A6F050E1B6F880E186F0401480E5F
:100DE0001E6F050E1F6F400E1C6F1200D9CFE6FF5D
:100DF000E1CFD9FF0001E16B040118BF30D0FC0E38
:100E0000DBCF0BF01951D8800B5403E2FC0E19C450
:100E1000DBFF0001E16BFC0EDB50E15D19E2E1510B
:100E2000EA6A080FE96E050EEA22EF50E66EE1511C
:100E3000E76EFD0EDBCFE9FFFE0EDBCFEAFFE750EA
:100E4000E926000EEA22E552E750EF6EE12BE3D7E8
:100E50000401400E196F1817187D880E1813000131
:100E6000E15100D0E552E7CFD9FF1200D9CFE6FF1C
:100E7000E1CFD9FFE6520001E25101E02FD0DF6A55
:100E8000DF2ADF500B6E0C6AFF0E0B1801E10C50CD
:100E900001E10BD0FD0EDBCFE9FFDB2AFE0EDBCF3D
:100EA000EAFF01E3DB2AEF50EBE1DF500B6E0C6A47
:100EB000D950FD0FE96EFF0EDA20EA6E0B50EE5EA0
:100EC0000C50ED5AFD0EDBCFE3F0FE0EDBCFE4F06D
:100ED000DFCFE7F00001E86B010EE26FE552E5526B
:100EE000E7CFD9FF1200D9CFE6FFE1CFD9FFE65215
:100EF0000001E25101E030D0DF6ADF2ADF500B6EE3
:100F00000C6AFF0E0B1801E10C5001E10CD0FD0E34
:100F1000DBCFF6FFDB2AFE0EDBCFF7FF01E3DB2A98
:100F20000800F550EAE1DF500B6E0C6AD950FD0F56
:100F3000E96EFF0EDA20EA6E0B50EE5E0C50ED5AB1
:100F4000FD0EDBCFE3F0FE0EDBCFE4F0DFCFE7F00A
:100F50000001010EE86FE26FE552E552E7CFD9FFDD
:100F60001200D9CFE6FFE1CFD9FFE65204011CBF42
:100F70006BD0030E0001E25D01E1E26BE25101E1A1
:100F800063D0020EE25D06E104011D6B0001030E59
:100F9000E26F54D0E20552E1400E0B6E0C6AE7514D
:100FA0000B5C000E0C5803E2400EDF6E02D0E7C06F
:100FB000DFFFDFCF1DF4DF50E75DE76F480EE56F21
:100FC000050EE66FE80515E1DF5012E0E3C0F6FF1D
:100FD000E4C0F7FF0800F550E5C0E9FFE6C0EAFF0E
:100FE000EF6EE52B000EE623E32BE423DF06ECD7C0
:100FF00013D0DF5011E0E3C0E9FFE4C0EAFFEF5097
:10100000E5C0E9FFE6C0EAFFEF6EE52B000EE62340
:10101000E32BE423DF06EDD7E75110E104011D5176
:101020000B6E0C6A400E0B1801E10C5004E100013C
:10103000020EE26F03D00001030EE26F400E0401C6
:101040001C171C7D880E1C13E552E552E7CFD9FF13
:0210500012008C
:0E105200948E949C710EAF6E020EB06E240E42
:10106000AC6E900EAB6E080EB86E1200D9CFE6FFD4
:10107000E1CFD9FF020EE126D950FD0FE96EFF0E38
:10108000DA20EA6EEE50ED1001E11CD0DE6ADD6A76
:10109000DECF0BF0DDCF0CF0FD0EDBCF0DF0FE0E42
:1010A000DBCF0EF00D500B5C0E500C580BE2040021
:1010B000050EE66E21EC0FF0E552DF2A010E01E38A
:1010C000DB2AE6D7020EE15C02E2E16AE552E16E5C
:1010D000E552E7CFD9FF1200D9CFE6FFE1CFD9FF24
:1010E000020EE126D950FD0FE96EFF0EDA20EA6EFE
:1010F000EE50ED1001E11CD00400DE6ADD6ADECFA7
:101100000BF0DDCF0CF0FD0EDBCF0DF0FE0EDBCFD4
:101110000EF00D500B5C0E500C580AE2000000005F
:10112000000000000000DF2A010E01E3DB2AE7D700
:10113000020EE15C02E2E16AE552E16EE552E7CFC0
:10114000D9FF1200D9CFE6FFE1CFD9FFE652040064
:10115000A69CA69EFE0EDB50A96EF29EA680A8500D
:10116000DF6EF28EDF5000D0E552E552E7CFD9FFB7
:101170001200D9CFE6FFE1CFD9FFE652F250800B43
:1011800001E0010EDF6EF29EFE0EDB50A96EFD0E39
:10119000DB50A86EA69EA69CA684550EA76EAA0E2E
:1011A000A76EA6820400A6B2FDD7A694DF50E8B0D1
:1011B000F28EE8A0F29EE552E552E7CFD9FF120089
:1011C000D9CFE6FFE1CFD9FF020EE126FD0EDBCF3E
:1011D000DEFFDBCFDDFFFA0EDBCFF3FFDB06F350E4
:1011E000000919E0DFCFE9FFDF2A010EDBCFEAFFBC
:1011F00001E3DB2AEF50E66EFB0EDBCF0BF0DB2AC0
:10120000FC0EDBCF0CF001E3DB2A0B50E66EB1DF06
:10121000E552E552E0D7020EE15C02E2E16AE552F6
:10122000E16EE552E7CFD9FF1200D9CFE6FFE1CF5B
:10123000D9FF020EE126DE6ADD6ADE6ADD6AFD0E96
:10124000DBCF0BF0FE0EDBCF0CF0DE500B24E96E93
:10125000DD500C20EA6EEF5022E0FD0EDBCF0BF0EC
:10126000FE0EDBCF0CF0DE500B24E96EDD500C20BF
:10127000EA6EEF50E66EFC0EDB500F6E106ADE5029
:101280000F240D6EDD5010200E6E0D50E66E71DFD6
:10129000E552E552DF2A010E01E3DB2AD0D7E66AE8
:1012A000FC0EDB2AFC0EDBCFE6FF63DFE552E552E6
:1012B000020EE15C02E2E16AE552E16EE552E7CF3F
:1012C000D9FF1200D9CFE6FFE1CFD9FF040EE12606
:1012D000FD0EDBCF06F0FE0EDBCF07F0020E06C0E0
:1012E000DBFF030E07C0DBFFFB0EDBCF0BF0DB2ABF
:1012F000FC0EDBCF0CF001E3DB2A0B50E66E22DFA5
:10130000E552E66EFD0EDBCFE9FFFE0EDBCFEAFF16
:10131000E552E750EF6EFD0EDBCFE9FFFE0EDBCFAF
:10132000EAFFEF501DE0FD0EDB2AFE0E01E3DB2A93
:10133000FB0EDBCF0BF0DB2AFC0EDBCF0CF001E366
:10134000DB2A0B50E66EFEDEE552E66EFD0EDBCFCD
:10135000E9FFFE0EDBCFEAFFE552E750EF6EDBD789
:10136000020EDBCF06F0030EDBCF07F0FD0E06C04A
:10137000DBFFFE0E07C0DBFF040EE15C02E2E16A68
:0C138000E552E16EE552E7CFD9FF120004
:04138C0004012051E7
:10139000600BE842E842E842E842E842000901E026
:1013A00055D02151070A51E00B0A4FE0070A40E0EF
:1013B000010A2CE00B0A28E0020A26E0030A22E0D8
:1013C000080A12E0010A0EE00F0A0AE0030A01E02F
:1013D0003CD00101010E0B6F0001040EFC6F36D0F2
:1013E00036D834D090D832D00101010E0B6F0101F4
:1013F000FE0E0C6F000E0D6F0001FD930101010E3A
:10140000106F24D0A8D822D0F6D820D00101010E28
:101410000B6F0401245101010C6F0D6BFF0E0C27A3
:10142000000E0D230001FD930101010E106F0ED07F
:101430000101010E0B6F04012451EA6AFF0FE96EEE
:10144000000EEA2222C4EFFF01D000D01200800E6D
:101450000401205D57E12351030A34E0010A10E042
:10146000030A01E04DD00101010E0B6F0101640E72
:101470000C6F1C0E0D6F120E0101106F116B40D01E
:101480000101010E0B6F04012251F66EF76AD8902C
:10149000F636F736250EF6261D0EF7220900F5CF93
:1014A0000CF10A00F5CF0DF1020E0101F76A0C25CF
:1014B000F66E0D51F7220900F5CF10F10A00F5CFB5
:1014C00011F11ED00101010E0B6F04012251F66EC5
:1014D000F76AD890F636F736290EF6261D0EF72253
:1014E0000900F5CF0CF10A00F5CF0DF10CC1F6FFA4
:1014F0000DC1F7FF0800F5500101106F116B00D00E
:101500000001FD8312000101010E0B6F0F0EE66E4C
:10151000710EE66E0F0EE66E74EC0DF0E552E552BC
:10152000E552010EE66EFF0EE66E000EE66E74ECFE
:101530000DF0E552E552E55222C4FEF004012251BD
:1015400004E10001050EFC6F05D00001060EFC6FE2
:10155000CEEC06F012000401286B296B0401205127
:101560001F0B020A16E0030A10E0010A01E035D061
:101570000101010E0B6F83A402D004012881000138
:10158000FDA102D00401288328D00101010E0B6FB8
:1015900024D00101010E0B6F040124510F0B080D23
:1015A000F3500C6A000F0B6E040E0C222451800BBA
:1015B00001E0010E040DF35001010B240E6F000E2B
:1015C0000C200F6F0EC1E9FF0FC1EAFFEF50040BB3
:1015D00003E00401010E286F00D001010B050AE1B0
:1015E0000101280E0C6F040E0D6F0001FD93010127
:1015F000020E106F12000401220510E120511F0B92
:1016000000090CE10101010E0B6F030E0401215DC5
:1016100003E10001FD8102D00001FD91040122518E
:101620003AE120511F0B020836E124510F0B00094B
:1016300032E00101010E0B6F040124510F0B080D64
:10164000F3500C6A000F0B6E040E0C222451800B19
:1016500001E0010E040DF35001010B240E6F000E8A
:101660000C200F6F030E0401215D07E1840E0EC1F3
:10167000E9FF0FC1EAFFEF6E0ED024AF06D00EC116
:10168000E9FF0FC1EAFFEF6A06D0880E0EC1E9FF3D
:081690000FC1EAFFEF6E12002A
:081698006C5002E0000E01D0CD
:1016A000010E00090BE0040100513C0BE842E84246
:1016B0000D0802E10CD801D040D808D06C5002E0EF
:1016C000000E01D0010E040901E047D81200D9CF65
:1016D000E6FFE1CFD9FFE65201010A6B0B6B106BFD
:1016E000116BC6EC09F0DF6ADF500B6E0C6A010E5D
:1016F0000B5C000E0C581BE201010B5101E017D0EE
:10170000F76ADF34FE0BF736F66E2F0EF6261D0E47
:10171000F7220900F5CF0BF00800F5CF0CF004D04C
:101720000CC0FAFF0B50F96EFBDFDF2ADDD7DDD8E6
:10173000E552E552E7CFD9FF1200020E01010A5D22
:101740000AE196D8040100BD03D0C80E006F02D094
:10175000880E006F01D00FD91200040E0001FC5D4D
:101760000AE122C46EFF6E50000803E2050EFC6F12
:1017700002D0030EFC6F01010A050AE10BD8040137
:1017800004BD03D0C80E046F02D0880E046F01D0D0
:10179000F2D81200D9CFE6FFE1CFD9FF020EE12641
:1017A0000101080E105D000E115905E210C1DEFFA7
:1017B00011C1DDFF03D0080EDE6EDD6A0401049363
:1017C0000491010EDB500413DFCF05F4000EDB5053
:1017D0000101105F010EDB50115B280E0E6F040E2D
:1017E0000F6F0001FDA31ED0D9CFE9FFDACFEAFFCA
:1017F000EE50ED1016E00CC1F6FF0DC1F7FF08002A
:10180000F5500EC1E9FF0FC1EAFFEF6E01010E2B8B
:10181000000E0F230C2B0D23DF06010E01E2DB0669
:10182000E3D71CD0D9CFE9FFDACFEAFFEE50ED10B5
:1018300015E00CC1E9FF0DC1EAFFEF500EC1E9FF51
:101840000FC1EAFFEF6E01010E2B000E0F230C2BD0
:101850000D23DF06010E01E2DB06E4D7020EE15C98
:1018600002E2E16AE552E16EE552E7CFD9FF1200EC
:10187000D9CFE6FFE1CFD9FF020EE126030E040126
:101880000015E76E010EE7CFDBFF01C4DFFFDE507E
:1018900001011027DD501123280E0C6F040E0D6F6F
:1018A000D9CFE9FFDACFEAFFEE50ED1014E00CC11A
:1018B000E9FF0DC1EAFFEF500EC1E9FF0FC1EAFFDA
:1018C000EF6E0E2B000E0F230C2B0D23DF06010EE7
:1018D00001E2DB06E5D7020EE15C02E2E16AE552D5
:1018E000E16EE552E7CFD9FF120001010B510CE187
:1018F0000401080E016F200E026F040E036F840EA8
:10190000006F0401046F35D0040120AF22D0010123
:1019100010510401265D010111510401275904E20F
:1019200026C410F127C411F135DF0101010E0A6F41
:101930000401080E016F200E026F040E036F800E6B
:10194000006F0401280E066F040E076FC80E046FA7
:1019500010D00101020E0A6F0401056BC80E046F5E
:101960000401080E016F280E026F040E036FC80EEB
:10197000006F6D98120001010A6B0401080E016FDF
:10198000200E026F040E036F880E006F0401046BBB
:02199000120043
:0E19920083A603D06DA60FD802D06DB613D871
:1019A0000001FC0508E16DBA06D0686A696A6980C1
:1019B0006988020EFC6F12006D6A696A6D8600010B
:1019C000010EFC6F12006D6A696A0001FC6B120067
:1019D000E3EF0CF00001FC5101E13AD06850040B38
:1019E00004E06950040B01E03CD86DB231D068507E
:1019F000010B04E06950010B01E054D86850100B52
:101A000004E06950100B01E024D86850400B04E05A
:101A10006950400B01E03BD86850200B04E069504E
:101A2000200B01E036D86850020B04E06950020B2D
:101A300001E036D8030E0001FC5D01E209D06850D8
:101A4000080B06E06950080B03E04CEC0BF06896BD
:101A50001200698468986D82A19AA08A0300A09AF6
:101A600012006D926994689412000001FDA10ED0DD
:101A7000F8DF6D840101080E1D6F070E1E6F1D0734
:101A8000000E1E5B1D511E11FAE16D941200689C40
:101A9000120070A003D0BBEC0CF07090689A12009A
:101AA000689212006A6A686A9F0E6B6E7B0E696E9E
:101AB0006E6A0F0EE66E710EE66E0F0EE66E14D8AD
:101AC000E552E552E552160E706E68A602D0689691
:101AD000FCD76D98BBEC0CF00001FD910001FE6B92
:101AE0000001030EFC6F1200D9CFE6FFE1CFD9FF52
:101AF000FD0EDBCFE9FFFE0EDBCFEAFFFC0EDB5075
:101B000004E0EE6AFC0EDB06F9D7E552E7CFD9FF19
:021B10001200C1
:0E1B1200DACFE4FFE2CFDAFFE652E552E5CF8C
:101B2000DAFF1100DACFE4FFE2CFDAFFE6529EA23D
:101B300007D09E920101172B0101182B000E1923CB
:101B4000E552E5CFDAFF11000FD84FEC0FF022D8A5
:101B500029D8060E0001FC5D05E36D50020B02E181
:101B60009DEC04F0F4D712000F0EC1125D0ECA6E88
:101B7000F90ECB6E9D8295869584140E6F6E0001D2
:101B8000FC6B0001FD6B0001FE6B3AEC04F0F28C83
:101B9000F28E1200C9EC0CF06FBE02D0EAEC0CF031
:101BA000B1EF07F001011F510101175D0B6E0C6AC7
:101BB0000C3404E20B509608000E0C540DE2960E05
:101BC00001011F2701011A511B1103E1200E1A6F99
:101BD0001B6B1A07000E1B5B030E01011A150B6E1F
:101BE0000C6A030E0B1801E10C500DE1040E1C03EE
:101BF000F3CF0BF00B501A5D000E1B5902E28A8CDA
:101C000001D08A9C01D08A9C6DA203D0010E1C6F6A
:101C100028D00001FC5104E10101020E1C6F21D00B
:101C2000FC0504E10101030E1C6F1BD0020EFC5DDC
:101C300004E10101040E1C6F14D0030EFC5D04E1ED
:101C40000101050E1C6F0DD0050EFC5D04E10101C4
:101C5000060E1C6F06D0060EFC5D03E10101070EA7
:041C60001C6F1200E3
:0C1C64001201000202000008D8040A006F
:101C70000000010200010902430002010080320954
:101C800004000001020201000524001001042402E6
:101C9000020524060001052401000107058203084E
:101CA000000209040100020A0000000705030240C7
:101CB0000000070583024000000403090434034DBB
:101CC000006900630072006F0063006800690070C3
:101CD00000200054006500630068006E006F006C17
:101CE000006F0067007900200049006E0063002E3D
:101CF0000034034300440043002000520053002DF1
:101D000000320033003200200045006D0075006C89
:101D1000006100740069006F006E002000440065DF
:101D2000006D006F00761C761CB91CBD1CF11CD820
:011D30000CA6
:0E1D32002A0EF66E080EF76E000EF86E010116
:101D40000900F550056F0900F550066F03E10567BE
:101D500001D03DD00900F550006F0900F550016F2A
:101D60000900F550026F09000900F550E96E0900FD
:101D7000F550EA6E090009000900F550036F0900EB
:101D8000F550046F09000900F6CF07F1F7CF08F10D
:101D9000F8CF09F100C1F6FF01C1F7FF02C1F8FF5A
:101DA0000101035302E1045307E00900F550EE6E10
:101DB0000307F8E20407F9D707C1F6FF08C1F7FFE8
:101DC00009C1F8FF01010507000E065BBFD712002D
:101DD000504943313846343535302046756C6C2DCA
:101DE000537065656420555342202D2043444320A1
:101DF00052532D32333220456D756C6174696F6EAC
:0F1E00002044656D6F0D0A0D0A001B5B324A000E
:011E0F000DC5
:101E10004D6963726F6368697020546563686E6FA3
:101E20006C6F677920496E632E2C20323030340D70
:101E30000A000D48656C6C6F20576F726C640D0A58
:011E400000A1
:0E1E4200FF0EE350116E480E01D04C0EE76EFD
:101E5000E72EFED7E76AE72EFED7112EF7D7000050
:021E600012006E
:0E1E6200000EF36E00EE00F0080E01D8120024
:101E7000EA6002D0EE6AFCD7F350E9601200EE6A25
:021E8000FCD78D
:0E1E820013EE00F023EE00F0F86A0A9C99ECD3
:0E1E90000EF054EC0FF0A4EC0DF0FBD7120096
:021E9E00010140
:081EA000176B186B196B12009F
:021EA800120026
:051EAA00000000000033
:011EAF000032
:021EB000000030
:0200000400F00A
:10000000FF000000FF0000000000000000000000F2
:1000100000000000000000000000000000000000E0
:1000200000000000000000000000000000000000D0
:1000300000000000000000000000000000000000C0
:1000400000000000000000000000000000000000B0
:1000500000000000000000000000000000000000A0
:100060000000000000000000000000000000000090
:100070000000000000000000000000000000000080
:100080000000000000000000000000000000000070
:100090000000000000000000000000000000000060
:1000A0000000000000000000000000000000000050
:1000B0000000000000000000000000000000000040
:1000C0000000000000000000000000000000000030
:1000D0000000000000000000000000000000000020
:1000E0000000000000000000000000000000000010
:1000F0000000000000000000000000000000000000
:00000001FF
